:020000000C945E
:1000020099000C94C6000C94C7000C9400000C9448
:1000120000000C9400000C9400000C9400000C945E
:1000220000000C9400000C9400000C9400000C944E
:1000320000000C9400000C9400000C9400000C943E
:1000420000000C9400000C9400000C9400000C942E
:1000520000001027E80364000A00010000100001FC
:10006200100001000000000000000000000000007D
:100072000000000000000000456E74657220557398
:10008200657200456E746572204E6577205061730B
:1000920073006C6F6720696E2066697273740075F5
:1000A2003A256420703A256400656E74657220708A
:1000B200617373006E6F20757365720061636365AF
:1000C2007373206772616E74656400696E636F7228
:1000D200726563742070617373776F7264000100DC
:1000E2002D4E414E00494E46000080C00A000400D9
:1000F20066000B0060027A000B006B027A000F00B0
:10010200760285000D00850294000B009202AB007E
:1001120008009D02B6000F00A502BE001300B40243
:10012200CD000100DD02E0000200E102EC0000006F
:10013200F894EE27ECBBF1E0FBBFEBBFE5BF8DE02F
:10014200A2E0BB27ED938A95E9F780E094E0A0E670
:10015200ED930197E9F7EEEEF0E085919591009726
:1001620061F0A591B59105901590BF01F001059040
:100172000D920197E1F7FB01F0CFEFE5EDBFE4E06F
:10018200EEBFC0E6D2E00C94C80018951895EF9720
:10019200EF97EF97E5978AE0A0E0B0E0E0E7F0E0C4
:1001A2000E94FA0600E010E021E030E040E050E07A
:1001B20040E050E04A30E0E05E07D4F4E0E0E8835B
:1001C200E983A881B9811A9784F40E94FA05E8812B
:1001D200F9810E940406E0E0F0E0ED93FC93E881EF
:1001E200F9813196E883F983ECCF4F5F5F4FE2CF1D
:1001F200E0E0EAA7EBA7E7E5F4E0ECA7FDA7EEAFA6
:10020200FFAFFE01FE963296A7E5B4E0A083B1836C
:10021200EEEAF8E0DE01AE5ABF4FED93FC93FE0129
:10022200BA96BA96A5E0BDE0A083B183E7E0F0E01C
:10023200EA87FB87E8E0F0E0EC87FD87E9E0F0E0A1
:10024200EE87FF87EFEFFFEFE88BF98BE6E0F0E058
:10025200EA8BFB8BFE017496A5E0B0E0A083B1832C
:10026200FE017696A4E0B0E0A083B183FE01789609
:10027200ACEFBFEFA083B183E3E0F0E0EA8FFB8F46
:10028200FE017C96A2E0B0E0A083B183FE017E96DF
:10029200A1E0B0E0A083B183FE01B096ADE9BFEF6B
:1002A200A083B183EEEFFFEFEAA3FBA3FE01B496B6
:1002B200A0E0B0E0A083B183FE01B696ADEFBFEF40
:1002C200A083B183FE01B896ADE9BFEFA083B183ED
:1002D200E0E0EABBEBBBE7BBE8BBE5BBE1BBE2BBF3
:1002E200E3BFE2BFECBFEFBDEEBDEDBDECBDE7BDD0
:1002F200E6BDEBBDEABDE9BDE8BDE2BDE5BDE4BDDD
:10030200E3BDE9BFEBB7E06CEBBFE0E0E5BFE4BF04
:10031200E0ECEABFE0E0EAB9E0E8E8B9E0E0E0BF3B
:10032200E6B9EDB9E6BFA0E10E94CA050E9409063E
:10033200A0E6B2E00E94B9057894E0EFE4BB66243F
:100342007724E0EFE4BBEFE0E5BBE5B3AE2FE3B328
:10035200EA23EF30D1F398D1EFE0E4BBE0EFE5BB65
:10036200E5B3AE2FE3B3EA23E03FD1F3A6D10E9477
:100372000E060E94DF06EC3FAFEFFA0769F40E9417
:10038200170600E010E0442455240E942406ABE640
:10039200B2E00E94B905D3CF0E940E060E94DF068A
:1003A200ED3FAFEFFA0739F400E010E00E941706C4
:1003B2000E948B05C4CF0E940E060E94DF06EF3F0B
:1003C200AFEFFA0709F5E2E0F0E0E415F50551F4C4
:1003D2000E942406A6E7B2E00E94B905F201319616
:1003E2002F010DC0E2E0F0E04E165F0664F40E94B9
:1003F2002406A5E8B2E00E94B9054424552400E091
:1004020010E00E9417069BCF0E940E060E9427064C
:1004120041F4E3E0F0E0E415F50519F40E942D063D
:1004220009F04AC040E050E04430E0E05E078CF45E
:100432000E9432060E9437062CF40E943C060E945B
:100442004306F8CF0E9449060E944D064F5F5F4F58
:10045200EBCF0E945706DE019A96EA0FFB1F6282DB
:1004620073820E942406E7ECF2E0FA93EA93E1EA4F
:10047200F0E0FA93EA930E945706DE019E96AE0FD1
:10048200BF1F0E945F060E945706DE01D296AE0F82
:10049200BF1F12960E945F0688E00E9415052C96E7
:1004A200A7ECB2E00E94B90500E010E0E2E0F0E063
:1004B2002F010E94170643CF0E940E060E942706B4
:1004C20039F400240414050419F40E942D0609F0DD
:1004D2004FC00E94240640E050E04430E0E05E0756
:1004E2008CF40E9432060E9437062CF40E943C06CD
:1004F2000E944306F8CF0E9449060E944D064F5FB4
:100502005F4FEBCF0E94240640E050E04A30E0E02B
:100512005E07FCF40E94FA050E94DF066E167F0653
:10052200A9F4E1E0F0E06F01F20131962F0100E061
:1005320010E04093DB025093DC020E9417060E94F7
:100542002406A2E9B2E00E94B90503C04F5F5F4FE3
:10055200DDCF0C2C0D2851F40E9417060E942406B0
:10056200ADE9B2E00E94B90500E010E0CC24DD2440
:100572000E940E060E94270641F4E1E0F0E0E41535
:10058200F50519F40E942D0609F03AC00E942406CE
:1005920040E050E04430E0E05E078CF40E94320616
:1005A2000E9437062CF40E943C060E944306F8CFB4
:1005B2000E9449060E944D064F5F5F4FEBCF0E949B
:1005C2005706DE019A96AE0FBF1F12960E94DF06F3
:1005D2006E167F0651F40E942406A5EAB2E00E943C
:1005E200B905F20131962F0106C00E942406A4EB40
:1005F200B2E00E94B9050E94170600E010E09FCE0B
:100602000E940E060E94270621F00430E0E01E0739
:100612000CF034C00E9409060E948B05F801DE012D
:100622001296EE0FFF1FEA0FFB1F0F010E940E062C
:100632000E94DF06D001ED93FC93E1EDF2E0FA9324
:10064200EA93E8EAF0E0FA93EA93F8010F5F1F4FAA
:10065200DE0116960E9404060E945F0684E00E9454
:1006620015052896E7ECF2E0FA93EA93A1EDB2E0E1
:100672000E947703A7ECB2E00E94B905A4EFB1E0B3
:100682000E94A0065CCEFFCFE3B3EF70E73021F407
:10069200E3E0F0E05F0110C0EB3021F4E2E0F0E0D3
:1006A2005F010AC0ED3021F4E1E0F0E05F0104C037
:1006B200EE3011F4AA24BB240895E3B3E07FE037BF
:1006C20021F4E3E0F0E04F0110C0E03B21F4E2E06E
:1006D200F0E04F010AC0E03D21F4E1E0F0E04F011B
:1006E20004C0E03E11F4882499240895BA93AA9391
:1006F200E991F991A991B991CD016D916623E9F73B
:10070200119761916D936623E1F7FC010895BA9305
:10071200AA93A991B991EE27FF276D91662311F053
:100722003196FBCF0895BA93AA93AA27BB27E991E2
:10073200F9910590002011F01196FBCFFD0108956B
:10074200BA93AA931A930A93AA81BB8112960E9422
:10075200DF06309759F1AA81BB8114960E94DF0609
:100762008F01309761F00230E0E01E0798F0F80147
:1007720031978F01AA81BB811496ED93FC93AA81D4
:10078200BB811296ED91FD913196FE93EE933197D6
:10079200AC81A083AA81BB810E94DF06FF232AF0DD
:1007A200ED91FD913196FE93EE9306C0AA81BB8135
:1007B200EFEFFFEFED93FC931981088125960895E1
:1007C200BA93AA9326970E94EC0610E0AC85BD85E9
:1007D200E0E0F0E0ED93FC93EA89FB893196EA8B45
:1007E200FB8B3197E4912E2FE03009F415C1E12FF4
:1007F200E03039F4253211F411E002C00E9466069D
:100802000AC1E130A9F4253219F40E94660602C138
:1008120012E040E000E02D3211F401E0FCC02B3286
:1008220011F44BE2F8C0203211F440E2F4C002C0ED
:10083200E23039F450E013E0203311F40068EBC0E9
:1008420003C0E33009F0E7C0203310F02A3308F088
:1008520007C0AAE05A9F502DE22FE0535E0FDBC083
:10086200E22FE33649F40E946D06E889F989A481F2
:10087200AA930E947306CEC0E33741F40E946D062C
:100882000E9479060E9488031E2F0AC0E03761F495
:100892000E946D060E9479060E9494031E2F086032
:1008A20002600F7730E034C0E43611F0E93611F41B
:1008B200046002C0E53731F4E4E5F0E0EE83FF8343
:1008C20015E00CC0E83511F4086003C0E83709F000
:1008D200A1C0EEE5F0E0EE83FF8314E002FF14C056
:1008E2000E946D060E948306AB85AA233AF4EA852C
:1008F200FB850E94AE06EA87FB874DE2403011F08D
:100902001F5F01C00B7F04C00E946D060E94830618
:1009120000FD11C0151778F407FF08C002FF04C0DC
:100922000B7F242F115001C020E301C020E20E945E
:1009320066065150EFCF312F01FF17C03030A1F0C2
:1009420003FF06C0EE81FF812591EE83FF8305C080
:10095200AE81BF812D91AE83BF830E946606503067
:1009620009F051503150EACF4BC020E3EE81FF81B4
:100972000E94E306E887F987EE81FF813296EE83D3
:10098200FF83E885F985AA85BB85AE17BF0750F0BE
:100992002F5FA885B985EA85FB85EA1BFB0BEA87F1
:1009A200FB87EFCF2A3328F003FF02C0295F01C083
:1009B200295D04FD1AC0213320F4A885B985119759
:1009C20009F409C0531710F000FF01C013C020E260
:1009D20007FF0BC020E3006102FF07C00B7F4A93B1
:1009E2000E947306503009F051500E946606503042
:1009F20009F051503150A885B985129708F0B5CF4A
:100A020000FF08C0503031F05150E0E2EA930E94FA
:100A12007306F8CF10E0E0CEAC85BD850E94DF06FC
:100A22000E94F30664960895FF92F82E26970E947C
:100A3200EE060E948B06309719F4EFEFFFEF23C00A
:100A4200DE0116960E94AA068D010E948B06EE8395
:100A5200FF83E0E0E887E987DE011A960E94AA0692
:100A62000E94DF06FA93EA931A930A93E1EAF3E00B
:100A7200FA93EA93DE011A96A3DE9F01AE81BF814B
:100A8200E0E0EC93F9010E94F5062A96FF900895A2
:100A9200AA93E881E07111F0DB9A01C0DB98E8814A
:100AA200E07211F0DC9A01C0DC98E881E07411F088
:100AB200DD9A01C0DD98E881E07811F0DE9A01C08C
:100AC200DE988DE08A95F1F7DA9A8DE08A95F1F752
:100AD200DA988DE08A95F1F78AC0AA93A881D8DFC7
:100AE200E881E295E883A881D3DF85E88A95F1F76A
:100AF2007EC0AA93E881F0E0EF51FD4FE081A98129
:100B0200AE0FEBDFE981E093E502E881E093E602D4
:100B120022960895A2E00E949206ACE0DEDFA1E0F8
:100B22000E949206E0E0E093E602E093E502089577
:100B3200AA93A881AA3031F0E091E702A091E502E0
:100B4200AE1760F0E0E0EA93A091E602AF5FA093F7
:100B5200E602CFDFA881AA3009F449C0E091E5029C
:100B6200EF5FE093E502D89AA881B7DFD8983FC03B
:100B7200BA93AA931A93A981BA81ED91A983BA83F0
:100B82001E2FE03019F0A12FD3DFF5CF1881239665
:100B92000895AA93D39AD49AD59AD69AD29AD09AE9
:100BA200D19ADA98D898D998E881E093E702E05888
:100BB200E093E302E881E054E093E402A4E1B0E0D0
:100BC2000E94A0060E9498060E9498060E9498061B
:100BD200A0E25EDF88EC90E00197F1F7A8E27DDF0A
:100BE200A4E07BDFA5E879DFA6E077DF93DF21963B
:100BF2000895A4E1A49FF001A59FF00DDE019A964D
:100C0200AE0FBF1F0895EE0FFF1FAE0FBF1F089557
:100C1200E0E0EA93A0E00C947A05F5010E94B206A6
:100C2200DE011A96AE0FBF1FF401EDCFE7ECF2E042
:100C3200FA93EA93E4E8F0E0FA93EA9380E00E9400
:100C42001505249608950E948B05E2CF0E94DF06C7
:100C5200EE3FAFEFFA070895E4E0F0E0E017F107A6
:100C62000895E3E0F0E0E883F9830895A881B9816B
:100C72004A175B070895F901AAE0B0E00E94CC068A
:100C82009F010895E881F9813197E883F9830895F6
:100C9200FA01DE011296B7CF0E94DF06D9010E9447
:100CA200CC066E0E7F1E21E030E00895A091DB029B
:100CB200B091DC02E4E10E94C60608950E94DF06BC
:100CC2000E94B9060E94E70608952A93AD85BE8563
:100CD200EF85F88909950895E889F9893497E88BB1
:100CE200F98B0895AD85BE85EF85F889099508953C
:100CF200A889B98914960E94DF06EE83FF83AE812C
:100D0200BF810895A889B98914960E94DF06EA87EF
:100D1200FB870895DE011C960E94AA060E94DF0648
:100D220008950E946E05A3E0B0E00C94A006A0E333
:100D32000E94490588EC90E00197F1F7089510961A
:100D420039F080ED97E00197F1F7A8951197C9F76F
:100D520008950024AF0DB01D0895F195E195F0407E
:100D62000895EE0FFF1FEE0FFF1FEE0FFF1F0895F6
:100D72006F2F660F660B762F0895FA9FF02DEB9F6B
:100D8200F00DEA9FE02DF10D08956E2F6A9FF0019C
:100D92006B9FF00D089504D0F0DF0EF4DEDF0895AE
:100DA200E894F7FF02C0D9DF6894B7FF06C0A095A8
:100DB200B095119600F8039400FA0895ED91FC9114
:100DC200119708950590F491E02D08957A936A930E
:100DD200FA93EA9308955A934A933A932A931A9369
:100DE2000A9308955D814C813B812A811981088192
:100DF2000895AC0FBD1F05900D928A95E1F70895F5
:00000001FF
